:10000000A0210020E519000059640000D11900006A
:10001000D1190000D1190000D11900000000000022
:10002000000000000000000000000000ED170000CC
:10003000D1190000000000009917000019330000DA
:100040005117000051170000511700005117000010
:100050005117000051170000511700005117000000
:1000600051170000511700005117000051170000F0
:1000700051170000511700005117000051170000E0
:1000800051170000511700005117000051170000D0
:1000900051170000511700005117000051170000C0
:1000A00051170000511700005117000051170000B0
:1000B00051170000511700005117000051170000A0
:1000C0005117000051170000511700005117000090
:1000D0005117000051170000511700005117000080
:1000E0005117000051170000511700005117000070
:1000F0005117000051170000511700005117000060
:1001000053B94AB9002908BF00281CBF4FF0FF317E
:100110004FF0FF3000F06CB9ADF1080C6DE904CE82
:1001200000F006F8DDF804E0DDE9022304B07047D2
:100130002DE9F047089E0D4604468E46002B40F000
:1001400082808A42174646D9B2FA82F24AB1C2F197
:10015000200105FA02F320FA01F1974041EA030E6B
:1001600094404FEA1748230CBEFBF8FCB9B208FBD9
:100170001CEE43EA0E430CFB01F098420AD9FB182F
:100180000CF1FF3580F01681984240F21381ACF1FA
:10019000020C3B441B1AA4B2B3FBF8F008FB10336B
:1001A00044EA034400FB01F1A14209D93C1900F1E2
:1001B000FF3380F00181A14240F2FE8002383C44CE
:1001C000641A40EA0C4000211EB1D4400023C6E965
:1001D0000043BDE8F08702B9FFDEB2FA82F2002ADE
:1001E0004FD1CB1B4FEA174E1FFA87F80121B3FB03
:1001F000FEFC250C0EFB1C3345EA034508FB0CF303
:10020000AB4207D97D190CF1FF3002D2AB4200F2AC
:10021000E7808446ED1AA3B2B5FBFEF00EFB105545
:1002200043EA054408FB00F8A04507D93C1900F152
:10023000FF3302D2A04500F2D7801846A4EB080491
:1002400040EA0C40C0E78B4208D9002E00F0AF8096
:100250000021C6E900050846BDE8F087B3FA83F13E
:1002600000294BD1AB4202D3824200F2B780841AFC
:1002700065EB030301209E46002EAAD0C6E9004E7E
:10028000A7E7C2F1200C01FA02F3974020FA0CF024
:100290004FEA174E21FA0CFC1843BCFBFEF1050C8B
:1002A0000EFB11CC1FFA87F845EA0C4501FB08F359
:1002B000AB4204FA02F409D97D1901F1FF3C80F048
:1002C0008B80AB4240F2888002393D44EB1A85B204
:1002D000B3FBFEF00EFB103345EA034500FB08F3C9
:1002E000AB4207D97D1900F1FF3C71D2AB426FD907
:1002F00002383D44EB1A40EA014178E7C1F1200C95
:100300008B4022FA0CF71F4320FA0CF405FA01F394
:100310004FEA174E25FA0CF51C43230CB5FBFEF9EA
:100320001FFA87F80EFB195543EA054509FB08FA41
:10033000AA4502FA01F200FA01F308D97D1909F180
:10034000FF3047D2AA4545D9A9F102093D44A5EBA2
:100350000A05A4B2B5FBFEF00EFB105544EA0544B5
:1003600000FB08F8A04507D93C1900F1FF352DD254
:10037000A0452BD902383C4440EA0940A4EB0804CC
:10038000A0FB02894C45C6464D4619D316D05EB136
:10039000B3EB0E0264EB050404FA0CFCCA404CEA11
:1003A0000202CC40C6E900240021BDE8F0873146B6
:1003B00030460EE7AC46EDE6184601E74345E6D287
:1003C000B8EB020E69EB07050138E0E72846D3E7F2
:1003D00060468FE78146BAE7614677E708464BE714
:1003E000ACF1020C3D4415E702383C4426E700BF5F
:1003F000704700BF2DE9F8431F48DFF888801F4F82
:10040000DFF8849006F007F805F01EFF10F57A7407
:1004100041F10005002605F017FF013602460B46A4
:100420004046314605F0F7FF3968484601313960EA
:1004300005F0F1FF124804F0ABFF05F005FF0B4695
:10044000A04273EB05010246E5DAA4EB020C2CEAAC
:10045000EC7C4FF4004E40F2E73000214FF47A720A
:100460000023CEFB0C01FFF74BFE04F09FFE14F5BA
:100470007A7445F10005CEE7986D00000000002079
:10048000D8030020B26D0000E96D0000F8B51348F4
:10049000134F144E144D05F0BEFF00244FF0FF32F1
:1004A0004FF0FF33384604F0B1FF05F0CDFE0134C4
:1004B00002460B463046214605F0ADFF29680B4841
:1004C00005F0A9FF0A4B0B4819680131196005F0C6
:1004D000A2FF094804F05CFFE0E700BF086E0000DF
:1004E000D8030020426E000000000020776E00005C
:1004F00004000020916E0000E8030020F8B50E48CB
:100500000E4F0F4E0F4D05F086FF00244FF0FF32C7
:100510004FF0FF33384604F079FF05F095FE0134C3
:1005200002460B463046214605F075FF296806480D
:1005300005F071FFEAE700BFB06E0000E80300209D
:10054000EA6E000004000020206F00002DE9F04159
:10055000234888B001F03EFD01220021214806F029
:10056000CFF901220021204806F0CAF90026002711
:1005700000240125CDE90667CDE90354CDE9014406
:100580001A4B1B4900944FF480621A4805F02CF86E
:10059000194B1860194B1A490094CDE90667CDE94B
:1005A0000354CDE901444FF480621648DFF86480BB
:1005B00005F01AF8C8F80000134B14490094CDE96F
:1005C0000667CDE90354CDE901444FF48062104839
:1005D00005F00AF8C8F8000008B0BDE8F08100BFD7
:1005E0003A6F0000D8030020E8030020F503000064
:1005F0004011002030010020F80300208D0400008D
:1006000060150020B0010020FD04000080190020CA
:1006100030020020FC0300202DE9F04F91B08B4602
:10062000029092461C4600259AF8000008B9284618
:100630005EE325280AF1010707D0029B5946984737
:100640000028C0F25583013510E2182200210AA8C3
:1006500005F033FF9AF80130252B78D0002294461C
:10066000164696461046394617F8013B2B2B00F0EC
:100670009D8000F29480202B00F09B80232B00F0C3
:100680009A8028B19DF8300040F004008DF83000C9
:10069000BEF1000F05D09DF8300040F008008DF845
:1006A00030002EB19DF8300040F010008DF8300081
:1006B000BCF1000F05D09DF8300040F020008DF80F
:1006C00030002AB19DF8302042F040028DF83020F1
:1006D0009DF8302002F04400442803D16FF38612C5
:1006E0008DF830209DF830202A2B42F080028DF8C2
:1006F00030207BD19DF8312042F001024B1C8DF857
:1007000031201A782E2A9DF831200CBF01210021BA
:1007100061F341028DF8312074D15A782A2A6AD0C7
:10072000013300210A26184610F8012BA2F13007E8
:10073000092F40F28E809DF830200E91C2F34000C8
:1007400040EAD17161F341028DF830205AE00AF19C
:1007500002078DF833309DF83130D90740F14981D7
:1007600054F8049BB9F1000F07DA9DF8302042F0ED
:1007700004028DF83020C9F100095A0740F1428186
:1007800054F8048BB8F1000F80F241819DF83130AC
:100790006FF341038DF831304FF0FF3837E12D2BE7
:1007A0000CD0302B7FF46DAF01225CE74FF0010ECF
:1007B00059E7012657E74FF0010C54E7012052E7B3
:1007C0000CFB0202303A33461E4616F8010BA0F12C
:1007D0003007092FF4D9994293D09DF830100D922B
:1007E000D20F62F341018DF830108AE70B460022E8
:1007F0004FF00A0CE8E79DF8312042F004028DF832
:10080000312002331F4617F8012B6C2A41D025D81E
:10081000682A2BD06A2A46D04C2A4CD01F4617F89B
:10082000012B9DF831308DF83320782A00F2D980E1
:10083000572A4DD8412A03D0453A022A00F2D180E6
:100840009DF83230042262F302038DF83230012326
:100850009EE006FB01213039034664E7742A26D066
:100860007A2ADBD19DF8313006220DE05A78682AC9
:100870009DF8312006D1012161F3C6028DF83120A7
:100880009F1CCCE71346022262F3C6038DF8313079
:10089000C5E75A786C2A9DF8312001D10421EBE795
:1008A00013460322F0E79DF831300522ECE79DF86E
:1008B00031300722E8E7BDF8303023F4F04323F06D
:1008C000020343F4804343F00203ADF83030A6E75F
:1008D000A2F15801202900F2848001A050F821F0F3
:1008E000A5090000E3090000E3090000E309000096
:1008F000E3090000E3090000E3090000E309000048
:10090000E309000041080000E3090000A509000018
:10091000650900004108000041080000410800008E
:10092000E309000065090000E3090000E309000095
:10093000E3090000E3090000AD090000A50900007B
:10094000C9090000E3090000E3090000C90900002B
:10095000E3090000A5090000E3090000E309000025
:10096000A50900009DF83210012003F0780360F320
:100970000201402B8DF8321002BF9DF8301041F07B
:1009800001018DF83010632A31D1003B18BF0123DB
:100990009DF83020C2F340010B4363F341028DF810
:1009A0003020D8E69DF832100220DEE79DF8322094
:1009B00003F07803A3F14000032161F302024342F4
:1009C0008DF832204341E3E79DF83220032113F0F4
:1009D000780F61F302028DF8322014BF0123002347
:1009E000D6E79DF8303043F001038DF83030002316
:1009F000CEE79DF93020002AB4BFDDF834904FF0E7
:100A0000FF39BAE69B077FF5C7AEDDF838809DF861
:100A100031200023CDE90D339DF8323003F0070378
:100A2000012BC2F3C30236D1D31E042B20D8DFE83A
:100A300003F00307071F1F0054F8040BC11704E05D
:100A4000073424F00704F4E80201CDE90A019DF817
:100A5000303013F0030654D002983B4652465946B4
:100A600005F052FC0028C0F243810544BA46DBE59C
:100A700054F8040B012A4FEAE071CDE90A0105D1CF
:100A80009DF828300A9300230B93E0E7022ADED179
:100A9000BDF92800D2E7022B23D1D31E042B13D893
:100AA000DFE803F0030A0A12120020680A9000210E
:100AB000231D0B911C46CAE7073424F00703F3E813
:100AC0000201CDE90A01F5E754F8043B0A93012A33
:100AD0004FF000030B93D3D0022AB8D1BDF82830D1
:100AE000D0E7042B07D1073424F00704F4E802010F
:100AF000CDE90A01ABE7032B04BF54F8043B0A938A
:100B0000A5E79DF833007828B0D8622822D8252898
:100B10003FF493AD5828A9D10DF126030093DDE9E8
:100B20000A0104AB0CAA05F0A4FB8246B8F1000F41
:100B30000DF126000CDB9DF83020A0EB0A036FF3CB
:100B4000861298458DF8302002D9A8EB03030D9347
:100B500080463DE06338152888D801A151F820F07F
:100B6000E10B0000450C00006D0A00006D0A00005A
:100B70006D0A00006D0A0000450C00006D0A0000BF
:100B80006D0A00006D0A00006D0A0000A30C000051
:100B9000710C0000750C00006D0A00006D0A000069
:100BA000B90B00006D0A0000710C00006D0A000016
:100BB0006D0A0000710C0000B8F1000FDDF828A0EC
:100BC0000ADB4146504605F064FC0AEB00080026AB
:100BD000BAF1000F0CD149E7504605F053FCF4E799
:100BE0000A9B8DF8103000260DF111080DF1100A46
:100BF000A8EB0A0306B101339DF83220D0066BD56D
:100C0000023352060D9948BF0E9A0B4448BF9B18F9
:100C1000B9F1000F79DD9DF83020A9EB0309C2F38B
:100C200080030393530770D4500664D546B1029BEA
:100C300059463046984700285ADB039B01351E462B
:100C4000302359E01E0711D413F0100618BF2026D8
:100C5000DDE90A23002A73F10001BFF65DAF5242BD
:100C600063EB4303CDE90A232D2655E72B26EFE757
:100C7000002651E70A9848B30DF1260300930CAA09
:100C800004AB002105F0F5FABDF8323003F0EF03B4
:100C900043F4F04343F010038246ADF832300026AF
:100CA00044E70A9B072A3FF6E1AEDFE802F00D04B5
:100CB000060D08080D0D1D70D8E61D80D6E62846E5
:100CC000E917C3E90001D1E61D60CFE6DFF8C48073
:100CD0000646A8F1050A8BE7110748BF013390E7E4
:100CE000184603935946029B98470028039B04DA51
:100CF00011B0BDE8F08F20234D444A46002AA5EBF1
:100D0000090109F1FF39EBDC0D4636B1029B59466A
:100D1000304698470028EBDB01359DF83230D90684
:100D200001D41A0706D5029B59463020984700285F
:100D3000DEDB01359DF83230DB0607D59DF8330048
:100D4000029B594698470028D2DB01350D9E2E4460
:100D5000731B002B16DC029843465246594605F099
:100D6000D3FA0028C4DB0544A944A9EB0503002BF2
:100D70007FF77CAE029B5946202098470028B7DBBE
:100D80000135F2E7029B5946302098470028AFDB37
:100D90000135DDE7726F000038B54468816004F00A
:100DA0000304032C054602D02CB1002000E00068AB
:100DB00000236B6038BD054A05490648452305F008
:100DC0002AFB0248452105F04DFAEEE7736F00005B
:100DD00091700000966F0000014805F0A3B800BFB5
:100DE000E86B000008B5D0B14368042B11D1002294
:100DF0000368BFF35B8F53E8001F012903D143E869
:100E000000200028F7D1BFF35B8F074808BF1046CA
:100E100008BD3BB1006803F01FF90020F8E76FF44C
:100E2000E040F5E70148F3E7E98FFFFFEA8FFFFFB6
:100E300010B5044618B90D4B0D485B6898476168BA
:100E400008290DD031F004030AD011F0020108D0B6
:100E50000848214602F09CFF0023236000236360C2
:100E600010BD2068142205F028FBF7E76800002079
:100E7000B36F00000004002010B5044618B9164BEB
:100E800016485B6898476368042B23D0082B21D051
:100E9000CBB92368BBB912484FF0FF324FF0FF3394
:100EA000214602F009FF08B923681BB90A4B0D4817
:100EB0005B68984720681422002105F0FEFA6368F9
:100EC00043F002036360206805F0F3FC636843F0BD
:100ED0000103636010BD00BF68000020B36F000015
:100EE00000040020D96F000008B508B34368042B44
:100EF00010D101220368BFF35B8F53E8001F002964
:100F000003D143E800200028F7D1BFF35B8F0BD15A
:100F1000002008BD53B100684FF0FF324FF0FF339F
:100F200002F09AFF0028F3D00348F2E70348F0E705
:100F30006FF4E040EDE700BFE98FFFFFEA8FFFFFAE
:100F400008B5064906484023142205F096FCBDE882
:100F500008400449044805F047B800BF20040020B9
:100F600000040020006C0000F06B00002DE9F04F41
:100F7000B0F81C9085B019F0080F0446039222D0F7
:100F800001290CBF49F0100949F02009A0F81C9074
:100F90001434204604F014FC68B99F4A9F49A048C5
:100FA000AC2305F038FA9F48214605F034FA9A48F8
:100FB000AC2105F057F9039B83F31188BFF36F8FC2
:100FC00005B0BDE8F08F984FDFF8548209F00709AB
:100FD000022906D1204605F0C3F90028D8D00128FF
:100FE00068D1D4F818B0A38BBBF1000F0ADA002641
:100FF000256823F00703C4E9006643F00103A383D7
:10100000019627E003F00702511F012934D800217F
:1010100023F00703062A25689BB2C4E900110CD10E
:101020008D422A4638BF0A462AB1E18B1268013147
:10103000E183002AF8D143F00203A383204605F0A0
:101040008FF906460028DBD0A38B43F02003A3834F
:1010500000230193A38B03F007024A45029203D0B9
:10106000A268002A40F0F0801DB9019A002A00F021
:1010700036814FF00009E9E0042A0ED123F007037E
:101080009AB2A283204605F06BF9054618B142F0EA
:101090002002A28300250195DCE74046634940F227
:1010A0001B133A4605F0B7F940F21B11384605F01C
:1010B000D9F8EFE7032835D1B9F1000F0BD05C491F
:1010C00040464FF4AB733A4605F0A5F94FF4AB71C7
:1010D000384605F0C7F823685BB95649404640F2E8
:1010E00057133A4605F097F940F25711384605F084
:1010F000B9F823691B6801935BB94F4940464FF427
:10110000AD733A4605F087F94FF4AD71384605F0F6
:10111000A9F8A38B23F0070343F00603A38300255C
:10112000AB4697E7042832D1B9F1020F0BD04349FF
:10113000404640F25D133A4605F06DF940F25D110C
:10114000384605F08FF8E38B5BB13D4940464FF4DC
:10115000AF733A4605F05FF94FF4AF71384605F0CA
:1011600081F823695B6801935BB93349404640F2DB
:1011700061133A4605F04FF940F26111384605F027
:1011800071F8A38B23F0070343F00403C6E7052897
:1011900032D1B9F1010F0BD02A4940464FF4B27356
:1011A0003A4605F038F94FF4B271384605F05AF86E
:1011B00023685BB91F49404640F265133A4605F083
:1011C0002AF940F26511384605F04CF823699B680E
:1011D00001935BB9184940464FF4B4733A4605F0A1
:1011E0001AF94FF4B471384605F03CF8A38B23F09C
:1011F000070343F0050391E70C4940F26B133A46AD
:10120000404605F008F9002540F26B11384605F01C
:1012100029F8019584E700BFA9700000CF70000095
:10122000966F0000E67000000670000091700000EC
:101230002870000034700000577000006E700000CD
:1012400084700000937000004FF0010943F0080320
:1012500004F1140AA383504604F0B2FA68B93A4A7A
:101260003A49AC23404605F0D6F83948514605F0D6
:10127000D2F83548AC2104F0F5FF039B83F31188C5
:10128000BFF36F8FB9F1000F38D1002D4BD1019B07
:1012900013B13049204698474FF02003EFF3118BEC
:1012A00083F31288BFF36F8F5046CDF80CB004F073
:1012B00079FA68B9244A28498123404605F0ABF8F9
:1012C0002648514605F0A7F81F48812104F0CAFFBF
:1012D000504604F085FAA38B23F00803A383A38B65
:1012E000DA0628D523F01003A3830121B4F81C905B
:1012F00009F0070900297FF46BAE49E6A1680029CF
:10130000C3D00B68029A002B38BF002399464B6864
:1013100020461E465B46B047B9F1000FB5D0D9F85C
:1013200000304946EEE72946029A2D685B46204682
:1013300005F032F8A9E713F020011EBF23F02003C7
:10134000A3830221D2E700BFA9700000CF70000084
:10135000E670000061130000FB70000010710000D7
:10136000F8B504460D4600F114064FF02003EFF3E4
:10137000118783F31288BFF36F8F304604F012FA9F
:1013800068B90C4A0C490D48812305F044F80C4813
:10139000314605F040F80748812104F063FF3046EC
:1013A00004F01EFAA5613A4620460121BDE8F84046
:1013B000FFF7DCBDA9700000FB700000966F000015
:1013C000107100002DE9F04704460F4604F0FAFFC3
:1013D000051E5EDB04F114094FF02003EFF3118AC0
:1013E00083F31288BFF36F8F484604F0DBF968B9C6
:1013F000384A39493948812305F00DF838484946BB
:1014000005F009F83348812104F02CFF484604F028
:10141000E7F9E38BA28B4FF6FF718B4202F00706D0
:1014200050D0022E24D10133E38335464FF001081A
:10143000484604F0C5F968B9264A2A492748AC232A
:1014400004F0E9FF2848494604F0E5FF2148AC21B3
:1014500004F008FF8AF31188BFF36F8FB8F1000F13
:1014600017D0002332463946204604F095FF10E09D
:10147000930701D0062E0FD100233B606368F3B9B8
:10148000C4E900773546FEB9524602212046FFF7EF
:101490006DFD2846BDE8F087052E18D0012E0BD033
:1014A00012490E48124A40F2C91304F0B4FF104822
:1014B00040F2C91104F0D6FE6FF0040504E01F608D
:1014C0006760DFE76FF00A054FF00008B0E76FF0E4
:1014D0008505F9E7A9700000FB700000966F000019
:1014E00010710000CF700000E670000093700000E3
:1014F00006700000F8B505464FF02003EFF31186A3
:1015000083F31288BFF36F8F1E4804F04BF968B95C
:101510001D4A1E491E48812304F07DFF19491D48BC
:1015200004F079FF1848812104F09CFE154804F06E
:1015300057F9194B1C68002C38BF00245CB1174FB9
:10154000D4E90132002D08BF13460BB13878984713
:101550002468002CF4D10B4804F032F968B90A4A27
:101560000F490B48AC2304F056FF06490D4804F020
:1015700052FF0548AC2104F075FE86F31188BFF3D5
:101580006F8FF8BD20090020A9700000FB700000DB
:10159000966F000010710000240900202C09002023
:1015A000CF700000E67000001FB50F4B1A68BAB983
:1015B00001221A600D4A07CA01AB83E807000C4AF2
:1015C0004AB193E8070004F094FF002005B05DF8ED
:1015D00004EBFFF78FBF82F31188BFF36F8FF4E73F
:1015E00005B05DF804FB00BF280000202C09002096
:1015F000F3640000F0B589B06E46014605463046FA
:1016000004F002FF96E807001F4C84E807002078EA
:10161000002837D01D4B002018606B1C1DD0914254
:101620000CD21B491B4A1C48CA2304F0F4FE1B4879
:1016300004F0F1FE1748CA2104F014FEA768184808
:10164000184A4FF4004600210023E6FB0701FEF78D
:1016500057FD0121281A04F085FA02F085FE0120C9
:10166000FFF748FF94E8070005AB83E807000E4A40
:101670001AB193E8070004F029FFFFF795FF03F084
:101680006BFB207809B0F0BD2C0900202800002059
:101690009E71000028710000966F0000DE7100004E
:1016A0003F420F0040420F00CD6400000B68013341
:1016B0000B60014B1B6818472C000020014B186081
:1016C000704700BF2C00002007B50B4600210246E2
:1016D0000191034801A9FEF79FFF03B05DF804FBE9
:1016E000AD16000008B504464FF02002EFF3118359
:1016F00082F31288BFF36F8F05F093F8204600F055
:10170000A5FC034804F087FE00F00AF8FCE700BFE0
:1017100003720000014910220A60704710ED00E0DA
:1017200072B6404080F31188BFF36F8FBFF34F8FC5
:1017300030BF62B6BFF36F8F704700BF72B64940CB
:1017400081F3118820BF80F3118862B6704700BF13
:1017500001B572B60B4A906900281EBF0021916145
:1017600005F084F862B6EFF30580A0F110004FEAAF
:10177000C0000549014409C99847BDE80140034933
:1017800008470000100B0020386A0000B51900005F
:1017900030BFFFF7FDBF00BF12498A684FF030002D
:1017A0001044EFF3098C80E8F01F202080F31288AA
:1017B000BFF36F8F0C4F4FF00066CA698A603E60BE
:1017C000506F0023536780F3118804B5104600F072
:1017D000E7FABDE8044002F1300090E8F01F8CF316
:1017E00009887047100B002004ED00E01EF0040F84
:1017F0000CBFEFF30880EFF30980816911F8021C38
:101800000229FFD001B504F01FFE01BD43B2002B39
:1018100008DB012200F01F0002FA00F05B09024A17
:1018200042F82300704700BF00E100E0054B420989
:1018300000F01F0053F82220012303FA00F01040AB
:10184000704700BF00E100E070B54C1C072C054656
:101850000E460FD9114A12491248582304F0DBFDF5
:101860001148314607232A4604F0D5FD0B4858217C
:1018700004F0F8FC6BB2002BACBF03F160430B4BE0
:101880004FEA4414B8BF05F00F05E4B2AABF03F550
:1018900061435C5583F8004370BD00BF2C720000AB
:1018A00062720000966F00007D72000014ED00E08F
:1018B0000B4A08B50B4B22F07F029A60BFF34F8FA3
:1018C000BFF36F8FD3F8882022F47002C3F888200A
:1018D00002F03AF904F0B2FA00F0F6F902F03EF93B
:1018E0000000000000ED00E0094A0A499368096819
:1018F0009967094958674B6843F080534B60002350
:1019000083F31188BFF36F8F9368986F704700BFA0
:10191000100B00200C6D000000ED00E042F8203CB0
:10192000009B42F81C3C0A49019B42F8183C029B70
:1019300042F8143C21F001014FF0807342F8043C5E
:1019400042F8081C0023203A02654367704700BF35
:10195000316400000B4A0346906890B113F1160FF2
:10196000406E05D0A0F120029A4206D8834204D2EC
:1019700081422CBF0021012100E00021002908BF85
:1019800000207047100B002008B5094B98600D46E9
:10199000144600F005FA204685F30988002163B655
:1019A00081F31188BFF36F8F0022002304F040FD04
:1019B000100B0020044B9968D869884203D0034972
:1019C0004FF080520A607047100B002004ED00E0D9
:1019D000EFF30880EFF3098101B5724600F0AEF82D
:1019E00001BD00BF002080F31488BFF36F8F04F0A7
:1019F000A5FF00200D490860BFF34F8F0C4880F30E
:101A0000088800F07DF9202080F3118809484FF400
:101A10000261401880F30988EFF314800221084323
:101A200080F31488BFF36F8FFFF742FF94ED00E05F
:101A3000A021002020230020234B70B515469A6A70
:101A40009A6A9A6A044690071AD5586B9A6A1206DF
:101A500016D519B19A6A22F080029A629A6A9A6A35
:101A60009A6AD6060FD49B6A99070CD40024164AAA
:101A7000936A43F0FF03936200232B70204670BDEE
:101A80006FF01500EAE7104E73681A05EED521468F
:101A9000FFF760FF044618B180F309880224E6E7E7
:101AA000B36ADB06E2D5094A09490A4840F24913FC
:101AB00004F0B1FC084804F0AEFC044840F24911BF
:101AC00004F0D0FBD3E700BF00ED00E0BD720000E2
:101AD000F7720000966F0000417300000D4B9A6A88
:101AE0009A6A9A6A920508D59A6B9A6A120404D582
:101AF00018B19A6A22F400429A62064B9A6A9A6A6C
:101B0000D20558BF9A6A9A6A002042F47F429A62CC
:101B10000870704700ED00E0074B9A6A9A6A9A6A6B
:101B20009A6A9A6A9A6A9A6A6FEA02426FEA12425B
:101B30009A620020704700BF00ED00E070B5544B82
:101B40005C688AB00D46C4F30804002686F3118849
:101B5000BFF36F8F02F07F43B3F17F4F08D102F0E4
:101B60000C03082B04D012075CBF054601267DB983
:101B7000484A4949494840F2F23304F04CFC48488D
:101B800004F049FC434840F2F23104F06BFB0025BD
:101B900000238DF80730E31E032B72D8DFE803F033
:101BA00002696D493A4BDC6A14F0020469D1DA6AC1
:101BB000002A18DBDB6A5B004ED5AB6933F8022CD8
:101BC0004DF602739A420DD003F1604303F626638B
:101BD0001B780BB30DF1070201212846FFF72CFFFC
:101BE000044600E02C689DF807309BB92022294666
:101BF00002A804F057FC099B002E44D0C3F308024E
:101C000022B96FEA53236FEA4323099302A92046BE
:101C100004F018FC0AB070BD224B1B782BB10DF1FB
:101C200007010120FFF75AFFDAE71F4B1B889BB221
:101C300013B1FFF771FFD3E71C49164A174840F26A
:101C4000C32304F0E8FB1A4804F0E5FB40F2C3218B
:101C5000104804F007FBC6E714490E4A0F4840F24B
:101C6000C72304F0D8FB134804F0D5FB40F2C7218A
:101C7000EEE70DF107020021AFE70DF107010020AB
:101C8000D0E70024AFE723F4FF7323F00103BCE7A0
:101C900000ED00E0BD72000064730000966F00006C
:101CA0007773000029ED00E02AED00E0917000005C
:101CB000B5730000D9730000024A536943F0100362
:101CC0005361704700ED00E0044800232021C21852
:101CD0000133302B82F80013F9D1704700E100E0A6
:101CE000064A11680023C1F3072118468B4200D130
:101CF0007047936010610133F8E700BF90ED00E09A
:101D000008B572B6002383F31388FFF7E9FF144B7D
:101D10004FF0FF32C3F88020C3F88420C3F8882036
:101D2000C3F88C20C3F89020C3F89420C3F89820FF
:101D3000C3F89C20C3F88021C3F88421C3F888210C
:101D4000C3F88C21C3F89021C3F89421C3F89821DB
:101D5000C3F89C2162B6BFF34F8FBFF36F8F08BDEE
:101D600000E100E0064B9B68834207D1EFF3058357
:101D700023B1044A536843F08053536003F054BACC
:101D8000100B002000ED00E0024B034A0348012144
:101D900000F068B80000042000000020146C00006F
:101DA000426E054B203A1A60044A2021C3E9011211
:101DB0001846012100F07EB83809002000000B15FC
:101DC000F0B51E4F00268E4201DB1046F0BD446880
:101DD00084B353B104F1FF3C14EA0C0F18D11F2C4B
:101DE00016D905681CEA050F12D1202C0568D0F819
:101DF00008C0D2B20FD9B4F1004F0ED8013CB4FAEA
:101E000084F4C4F11F046400072A4CEA040406D9D0
:101E10006FF01502D9E70824F6E73E24F4E725F031
:101E20001F05154345F0100544F00104BA60FD603C
:101E300001323C6101360C30C5E700BF90ED00E097
:101E4000034B05225A60BFF34F8FBFF36F8F70476C
:101E500090ED00E0BFF35F8F014B00225A607047A6
:101E600090ED00E038B50E4D01232A780C46FFF7BF
:101E7000A7FF2870163011D140F21113094A0A4900
:101E80000A4804F0C8FA2146094804F0C4FABDE83B
:101E90003840044840F2111104F0E4B938BD00BFE5
:101EA000700B00200974000091700000966F000014
:101EB0004074000010B5124A002312780C46FFF758
:101EC0007FFF10F1160F08D00E4B0022072800DD0F
:101ED00010BD98601A610130F8E70B4A0B490C48B5
:101EE0004FF4987304F097FA21460A4804F093FAE5
:101EF000BDE8104004484FF4987104F0B3B900BF36
:101F0000700B002090ED00E009740000917000005B
:101F1000966F00006C740000254910B50C68082C01
:101F200013D94FF4A473234A2349244804F073FAC5
:101F300023480822214604F06EFA1E484FF4A4718B
:101F400004F090F94FF0FF3010BDFFF783FF4868B1
:101F50001C490022944200F10C0019D11A4B1C704C
:101F6000FFF76EFF0B68C3F30723082B0ED017494A
:101F7000104A12484FF4D47304F04DFA144804F098
:101F80004AFA0C484FF4D47104F06CF90020DBE7F6
:101F90008A6050F80C3C23F01F03134343F01003F6
:101FA000CB6050F8043C43F001030B610132D1E7F0
:101FB000206C00000974000091700000966F000012
:101FC0009974000090ED00E0700B0020CD740000CB
:101FD0001D7500000FB407B504AB022153F8042BA4
:101FE00004480193FEF718FB03B05DF804EB04B05E
:101FF000704700BF6D640000014B1860704700BF60
:10200000300000200239012902D8034B1B68184711
:102010004FF0FF30704700BF300000204FF020032A
:10202000EFF3118283F31288BFF36F8F0649012308
:10203000C1F840354FF08041C1F8783582F31188FE
:10204000BFF36F8F0020704700E001404FF08043E6
:10205000C0B2C3F81C05BFF34F8F0549054BCA68D2
:1020600002F4E0621343CB60BFF34F8F00BFFDE784
:1020700000ED00E00400FA0520B1034B800143F0BD
:1020800001031847704700BFE06B00002DE9F041E5
:10209000104C071BC7F347174FF00C0808FB07F855
:1020A000064608F148000D462044402104F02CFA71
:1020B000011E09DB084B4444C4E91035074B53F8B3
:1020C0003730BDE8F041184730462B46BDE8F041B7
:1020D000184700BF540900206B650000546C0000D5
:1020E00038B5CCB2012C054609D9094909480A4A34
:1020F0007E2304F090F908487E2104F0B3F82B69A0
:102100000C2104FB0134A06C00F0070038BD00BFB7
:102110008A750000966F00004D750000F8B5CCB2CE
:10212000012C0769054616460BD918491848194A63
:1021300040F2531304F06FF9164840F2531104F0C3
:1021400091F84FF02003EFF3118283F31288BFF36D
:102150006F8F0C2303FB0471896C11F0C00101D057
:102160008E4210D103FB047301219964002082F395
:102170001188BFF36F8F28B9696801EBC4046368E5
:1021800098470020F8BD4FF0FF30F0E78A75000057
:10219000966F00004D75000070B50D460649411A56
:1021A0000446491105484022FFF7B8FF2B46014677
:1021B0002046BDE87040184754090020A869000077
:1021C000002270B5012104461046FFF73DFB0020B8
:1021D000FFF71CFB0F4801F0E7F80F4B984215D1B1
:1021E00001F006F926690D49304604F0FAF8002896
:1021F0000BDB0125B5642469084904F1200004F0D3
:10220000F0F8002801DB6565002070BD6FF0040068
:10221000FBE700BF552200000000AD0B646C00001E
:1022200001460C2309484B4370B5C418D4E9105635
:10223000002248332264184404F084F92DB1324658
:102240002B460348BDE87040184770BD5409002074
:10225000A8690000012808B506D0032808D0A8B94D
:10226000104B9B6C5B071BD1BDE80840FFF7D8BF44
:102270000D490E4A0E4840F2662304F0CCF840F2B5
:102280006621BDE80840094803F0ECBF0649074A4B
:10229000074840F26A2304F0BEF840F26A21F0E7F2
:1022A00008BD00BF54090020917000004D7500006A
:1022B000966F000008B54FF02003EFF3118183F310
:1022C0001288BFF36F8F124A136843F0020013F0B5
:1022D000010310600CD04FF08042D2F80C34D2F8D9
:1022E0000C2413F0010303D00A4804F02BF9012356
:1022F00081F31188BFF36F8F23B1BDE80840002040
:10230000FFF78EBFBDE80840012001F091B800BF83
:10231000AC0900209C090020094BBFF35B8F53E8F8
:10232000002F22F0020143E800100028F7D1BFF38C
:102330005B8FD30702D4012001F0CEB8704700BFF5
:10234000AC0900201FB500220123CDE90223094A70
:10235000CDF800D06B46CDF804D004F018F9002871
:1023600005DB4FF480420023684603F04FF805B0C8
:102370005DF804FB896500002DE9F8434949BFF386
:102380005B8F0546012251E8003F41E8002000280C
:10239000F9D1BFF35B8FA3B9434944484B60CB608D
:1023A0008A60FFF70FF800280BDA41494148424A9A
:1023B00040F2262304F02FF83F4840F2262103F094
:1023C00051FFADB36B1E012B56D8012D07D14FF035
:1023D0008043D3F81C3403F00303012B28D004F00E
:1023E0009BFA044618B9354B1B78002B52D14FF09D
:1023F0002003EFF3118683F31288BFF36F8F01245C
:102400002F4FDFF8C480DFF8C4904FF08042D2F83D
:102410001834D2F81824D2030CD503F00303012B8F
:1024200001D0012D06D10CB386F31188BFF36F8F55
:10243000BDE8F883ACB13046FFF780F94FF0804239
:10244000D2F81835002BE0D139680029DDD03B6087
:102450003B680123C2F81835C8F88031C9F800304C
:10246000D3E70021212002F0A1FEE7E74FF08043EF
:102470000222C3F80423DBE712490E480E4A4FF448
:102480000E7303F0C8FFBDE8F8430B484FF40E711C
:1024900003F0E8BE4FF080430222C3F8082306464B
:1024A000AEE700BFB00900204409002074090020F5
:1024B000AE750000966F00004D750000820F002081
:1024C000040100409170000000E100E008000040BD
:1024D00008B5084B0848186004F0BEF938B1074841
:1024E000FFF78AFD0548FFF7E9F8002008BD6FF007
:1024F0001200FBE7B4090020D869000001250000A4
:102500000A2838B5074D044604D1286883680D2190
:102510005B68984728688368E1B25B689847204603
:1025200038BD00BFB409002070B5056916460C46D9
:1025300061B92249224A2348242303F06CFF224830
:1025400003F069FF1E48242103F08CFE636863B921
:102550001E491B4A1B48252303F05DFF1C4803F05E
:102560005AFF1748252103F07DFE6B685BB10022FE
:102570009C4213D123685AB9AA686B60944200D177
:10258000AB600023236076B9002070BD0B46EFE7F7
:102590001360AB689C4208BFAA60F2E719681A464C
:1025A0000029F3D13EB16B682360A8686C600028F5
:1025B000EAD1AC60E9E76FF01500E6E7EA750000E4
:1025C000BD750000966F0000F375000002760000F4
:1025D000147600002DE9F04704680F4616464CB308
:1025E0002568DFF85880DFF85890DFF858A0002DF4
:1025F00038BF0025A3681E4214D0636863B94946FA
:1026000045234246504603F006FF0B4803F003FF04
:102610004521404603F026FED4E9013221463240EE
:102620003846984735B12B68002B38BF00232C461D
:102630001D46DFE7BDE8F08714760000BD75000099
:102640002B760000966F00000268530910B504460F
:102650002CD0012B4FF6FF7318BF002302F01F028E
:10266000D340DB070BD414491448154A4FF40573C3
:1026700003F0D1FE12484FF4057103F0F3FD236817
:1026800003F01F025B0922600DD0012B11D00D4910
:102690000A480B4A40F2192303F0BDFE084840F2F5
:1026A000192103F0DFFD4FF0A04010BD4FF0FF33C4
:1026B000D4E70548F9E700BF6A760000966F00008E
:1026C00037760000917000000003005008B5094BF8
:1026D0001A786AB90121197006200521FFF7B4F8AC
:1026E0000620FFF793F8044B4FF00042C3F8042391
:1026F000002008BD710B002000600040B2F5A03F33
:102700002DE9F743046907460E469046994601F0C5
:102710001F0540F0AB8043681B7A01A845EA4313CC
:102720000193FFF791FF019B03F5E07350F823300D
:10273000D80700F1BB80E3680121B1401943636908
:10274000E1600121B140B8F5A03F0CBF0B438B43C2
:102750006361A369574AD7F81080B9F5C02F0CBF41
:102760000B438B43A3612369B9F5802F0CBF194339
:1027700023EA01017B6821611B7A45EA4315D2F8FF
:1027800004330020DBB200F5A27152F82110C1F32E
:1027900005218D4275D123FA00F1C90771D5830057
:1027A00003F1804303F5C043D3F8101521F0010174
:1027B000C3F8101501238340C2F80833C0B200F0FB
:1027C0002DFF2846002103F024FFD8F80C00F0402C
:1027D00010F0010047D0D8F81400F04010F00104C8
:1027E00057D0D8F81830F340DB075FBFD8F8101087
:1027F00021FA06F606F00106C6F1020601A854BF4A
:10280000F6B2032600F02CFF2B4B98423ED19DF8E8
:1028100004108B0003F1804303F5C0432D02D3F86D
:10282000102522F44F3222F44072C3F81025D3F859
:10283000102505F47C5515438A0002F1804202F50B
:10284000C24245EA06460020C3F8106510601268CF
:10285000D3F8102542F00102C3F81025154A0123D0
:102860008B40C2F8043303B0BDE8F083B2F5005FDB
:102870007FF461AF012101FA06F3E16821EA030167
:102880005DE7013008287FF47EAF9AE76FF0120011
:10289000E9E7D8F81010F14001F00101C1F103019E
:1028A0002846C9B203F0B5FE2046DCE76FF085008C
:1028B000D9E700BF006000400000AD0B2E4BF7B51C
:1028C0002E4C40681340A34245D00ED8062B44D06E
:1028D00006D8002B41D0022B41D06FF0150038E014
:1028E000B3F5801FF9D1012409E0254CA34238D06B
:1028F000B3F5A00F37D0B3F5800FEED10224D50683
:1029000082F4807354BFC2F340160326C3F300273A
:102910009305C2F3402507D51305D0F804C024D58C
:1029200001238B40CCF80835037A01F01F0141EAFE
:10293000431101A80191FFF787FE019A45EA470379
:1029400043EA042302F5E07243EA860340F82230AA
:10295000002003B0F0BD0724D1E71C46CFE70424D4
:10296000CDE70524CBE70324C9E7530542BF012384
:102970008B40CCF80C35D7E70600F00006001000BD
:1029800002004000F0B5002485B0CDE90044CDE957
:102990000244264E35685DB102A9254803F04CFE7D
:1029A00003A90090234803F047FE01903460336888
:1029B000214C002201269446D4F8043306FA02F191
:1029C00019421BD0910001F1804101F5C2410B6811
:1029D000A3B102F5A27304AF54F82330C1F800C0CC
:1029E000C3F3403007EB8000C3F3042350F8107C9E
:1029F00006FA03F33B4340F8103C0B680132082A07
:102A0000DAD1009A1AB10A490C48FFF7E3FD019A9E
:102A10001AB108490A48FFF7DDFD2DB1044803F05B
:102A20004FFE044803F04CFE05B0F0BD7C61004051
:102A3000086A0000206A000000600040BC09002015
:102A4000D8090020F0B54B79012B2AD0032B25D1D2
:102A500010268B79032B21D1CC792CB1012C1DD1DF
:102A600043685B689B0719D00A7912B1022A15D115
:102A70000E220B684568B3F5164F2D6865D02DD82A
:102A8000B3F5165F64D016D8B3F5966F62D00AD846
:102A9000B3F5967F61D0B3F5167F61D06FF08500F6
:102AA00052E00026D5E7B3F5166F5CD0B3F5965F1C
:102AB000F4D1374B3CE0B3F5E14F57D007D8B3F52D
:102AC000615F55D0B3F5964FE8D1324B30E047F611
:102AD0001227BB42E2D14FF4000329E0B3F5613F76
:102AE00048D013D8B3F5963F47D009D84DF6C02744
:102AF000BB4244D0B3F5614FD0D14FF46B0317E024
:102B0000B3F5E13FCAD14FF0EB7311E0B3F5612F9C
:102B100038D008D8204FBB4237D0B3F5E12FBDD114
:102B20004FF0E86304E01D4FBB42B7D14FF0805334
:102B3000C5F82435036903C9344322430433C5F877
:102B40006C2583E803000020F0BD4FF41D03EFE780
:102B5000134BEDE74FF49E23EAE74FF4A033E7E78A
:102B60004FF41C33E4E74FF41D23E1E70D4BDFE79F
:102B70000D4BDDE74FF06C73DAE70C4BD8E74FF401
:102B80006503D5E74FF07063D2E74FF08063CFE77E
:102B900000B0130000A04E0090D0030040420F0090
:102BA0000050270000C0750000F03A0000903A0184
:102BB0000268530910B504462CD0012B4FF6FF7361
:102BC00018BF002302F01F02D340DB070BD41449C7
:102BD0001448154A4FF4057303F01DFC12484FF4D6
:102BE000057103F03FFB236803F01F025B092260BD
:102BF0000DD0012B11D00D490A480B4A40F2192380
:102C000003F009FC084840F2192103F02BFB4FF0B8
:102C1000A04010BD4FF0FF33D4E70548F9E700BFEF
:102C20006A760000966F0000377600009170000011
:102C300000030050F8B5066905460F4603F06CFE28
:102C400010B92C4B1B7883B94FF02003EFF311849C
:102C500083F31288BFF36F8F284603F0A0FD28BBD3
:102C600084F31188BFF36F8FEEE76424284603F0E6
:102C700096FD70B9012003F0E5FD013CF6D100217D
:102C8000212002F093FAF0E784F31188BFF36F8FED
:102C9000F5E74FF02003EFF3118483F31288BFF3BD
:102CA0006F8F284603F07BFD0028EDD006F8107FDB
:102CB00069680B680122C3F84465C3F848250022FF
:102CC000C3F82021D3F82001C3F85821D3F85821A4
:102CD0004A68D20641BF0822C3F800254FF480029B
:102CE000C3F8042301229A6084F31188BFF36F8F25
:102CF000F8BD00BF820F00202DE9F3414568066949
:102D00002C680023C4F800350746AB68306001A882
:102D10000193FFF74DFF019A01239340C0F8083556
:102D2000AB68019301A8FFF743FF019B03F5E07334
:102D3000032240F82320EB68591C0CD001A895F819
:102D400018800193FFF734FF019B03F5E0734FEA0E
:102D5000880240F82320D5E90223C4F80C25C4F8E2
:102D600014352B695A1C0CD001A895F819800193D1
:102D7000FFF71EFF019B03F5E0734FEA880240F85E
:102D800023206B69581C13D001A80193FFF710FF93
:102D9000019A01239340C0F808356B69019301A89B
:102DA000FFF706FF019B03F5E073032240F82320A1
:102DB000D5E904323969C4F808253846C4F8103515
:102DC0000431FFF73FFE0746002845D16B6819071D
:102DD00019D506F1120000F07BFC234B98423FD13D
:102DE000B07CC30003F1804303F5F83304F10C0217
:102DF00004F59071C3F81015C3F814251B4A01237C
:102E00008340C2F804350823C4F80035EB68013369
:102E10000CD00023C4F81031D4F8103106F111039E
:102E2000C4F834350123C4F8383523606B681A07B9
:102E30005CBF4FF48072C4F80423DB0644BF4FF438
:102E40008003C4F8043310360023C4F84465C4F882
:102E500048350123A360E360384602B0BDE8F08145
:102E60006FF00407F8E700BF0000AD0B00F0014071
:102E7000194970B5044622F07F460868C1E900236D
:102E8000A6F50013101AB3F5400F4FF000050AD253
:102E9000124B19680A060B0A9219114943F10003F3
:102EA000C1E90023012502F0ADFEA30003F1804338
:102EB00003F58833D3F84025B2420BD11DB94FF446
:102EC0000002C3F84025074B4FF4803000FA04F4A9
:102ED000C3F8444370BD00BFC8020020F8090020B9
:102EE000B00200200010014010B501238340114AB8
:102EF000BFF35B8FDC4352E8001F01EA040C42E899
:102F000000CEBEF1000FF6D1BFF35B8F4FF48032DD
:102F100002FA00F002F1804202F58052C2F8080382
:102F2000BFF35F8FBFF36F8F0B4214BF01200020F0
:102F300010BD00BFF40900200123124ABFF35B8FCC
:102F4000834052E8001F194342E8001CBCF1000F07
:102F5000F7D1BFF35B8F0C4A4FF480338340C2F844
:102F600004330A4BBFF35B8F1B68BFF35B8F23FAFD
:102F700000F0C30742BF064B4FF40032C3F80021F4
:102F8000704700BFF409002000100140F009002044
:102F900000E100E00D4B1B68190A1806BFF35F8FB4
:102FA0000B4BD3F80435C01841F10001B3F5801F75
:102FB0000AD2084BD3E90023994208BF904203D2BA
:102FC00010F1807041F10001704700BFF809002046
:102FD00000100140B00200202DE9F04F85B01646E8
:102FE0001F460546FFF780FF0190FFF7D3FFB94268
:102FF00008BFB0427FD2B6EB000867EB010900239F
:103000004FF080724B4508BF4245C0F08580444B6D
:1030100003EB0513D3E902239F4208BF964254D025
:103020004FEA85094FF4803B09F1804905F15008CA
:103030000BFA05F209F588394FEA88081FFA88F873
:103040000292384AD9F8400526F07F4308F18048BB
:1030500008F588381C469346D2F804A5A0EB0A0070
:1030600020F07F402AF07F410128C9F8401505D1A2
:103070000393132003F05CFC2A4A039B02990AF194
:10308000020CA4EB0C0020F07F40B0F5000F88BFCD
:1030900064460020C8F80000D8F80000CBF84413BC
:1030A00024F07F40C9F84005DBF80405824506D0CE
:1030B000201A023820F07F40B0F5000F19D8E41A2A
:1030C00024F07F44321947F10003154C290104EB29
:1030D0000510C0E902230E9A0F9B62504360002442
:1030E000019B13B12846FFF727FF204605B0BDE836
:1030F000F08F2046B0E701230B4ABFF35B8FAB4054
:1031000052E8001F194342E800100028F8D1BFF32D
:103110005B8F32463B46D8E76FF01504E0E700BF0F
:10312000B802002000100140F00900202DE9F7430B
:10313000344CD4F804339A0709D5334B1A6832B1AA
:1031400000221A60314A1B681368013313604FF084
:103150002003EFF3118283F31288BFF36F8FD4F84B
:103160000433DB0312D5BFF35B8F294B53E8001FF9
:1031700021F0010043E80006002EF7D1BFF35B8F7A
:10318000244B002936D11968002933D1002382F35A
:103190001188BFF36F8F53B3FFF7FCFE06464FF065
:1031A0002003EFF3118083F31288BFF36F8F1A4B64
:1031B000D3E90289494508BF46454FF000021ED3B6
:1031C0004FF0FF364FF0FF37D3E90015C3E9026730
:1031D0001A604FF48033C4F8483380F31188BFF38A
:1031E0006F8F21B1009542464B460020884703B0BF
:1031F000BDE8F083002119601B680123C7E7114671
:10320000EBE700BF0010014004110140F809002065
:10321000F009002040110140B802002073B51A4B9C
:103220001A4D00244FF0FF304FF0FF31C5F808452C
:10323000C3E902014FF48033C5F80433144B02266E
:103240004FF400320121C5F804631120C3F8802136
:103250002246FEF7F9FA1120FEF7D8FA0D4AC5F812
:103260000463012313600C4A2B6013600B4B0C4A60
:103270000093019400232046FFF7AEFE3046FFF78F
:103280007BF8204602B070BDB8020020001001405B
:1032900000E100E008100140F4090020712E000058
:1032A000FFFF7F00144B13B5B0F1FF3F08BF184676
:1032B000441E002C1EDD9C42A8BF1C46FFF76AFE80
:1032C0000E4B0F49D3E90023801AB0F5000F28BF39
:1032D00000240130044408480091844228BF044679
:1032E00012194FF00000019043F10003FFF774FE44
:1032F00002B010BD0024E1E7FFFF7F00C8020020FC
:10330000712E000008B5FFF745FE024B1B68C01A7E
:1033100008BD00BFC802002010B5064C064907488A
:103320002246172303F077F820461721BDE8104006
:1033300002F098BFA976000091700000966F00001F
:1033400008B578B101281CD0144A154915484FF426
:103350004F7303F060F811484FF44F7102F082FF91
:1033600000200DE031B14FF08043D3F8183403F062
:1033700003030B604FF08043D3F81804C0F3004000
:1033800008BD31B14FF08043D3F80C3403F0010392
:103390000B704FF08043D3F80C04EFE7E5760000A4
:1033A00091700000966F000010B5044648B90A49B4
:1033B0000A480B4AB52303F02EF80948B52102F05C
:1033C00051FF084B1A7922B9012207481C609A80E4
:1033D00010BD0648FCE700BF56770000966F00005E
:1033E00019770000FC0900200000AD0B0C00AD0BAC
:1033F00008B50B4B1B794BB90A490B480B4ACE2336
:1034000003F009F80948CE2102F02CFF0020FEF756
:103410000DFA18B9BDE80840FEF7F8B908BD00BFBD
:10342000FC09002064770000966F00001977000007
:10343000224B1B7913B504465BB921492148224A26
:103440004FF4857302F0E7FF1F484FF4857102F0D7
:1034500009FF74B1012C27D01B4A1C4919484FF4AD
:103460009E7302F0D8FF18484FF49E7102F0FAFEE6
:1034700016E001A92046FFF763FF4FF0804388B1B3
:10348000019A012A0ED1C3F81825114B00221A60A7
:103490001B684FF080430222C3F8042301229A6084
:1034A00002B010BD0022EEE70A4B00221A601B6832
:1034B0004FF08043C3F804431C60F1E7FC0900208F
:1034C00064770000966F000019770000917000008B
:1034D000040100400001004037B52F4D2A79044611
:1034E0005AB92E492E482F4A40F2431302F093FF57
:1034F0002C4840F2431102F0B5FE7CB1012C28D0DB
:1035000029492748274A40F25F1302F084FF2548E3
:1035100040F25F1102F0A6FE03B030BD4FF08043D1
:103520000222C3F80823C3F8044103F58273012281
:103530001B681E4B42F210741A6000210846FFF708
:10354000FFFE0028E8D0012003F07CF9013CF4D113
:10355000E2E74FF080430022C3F80843C3F800219C
:1035600003F580731B68124B1C608DF8074042F214
:1035700010740DF107010120FFF7E2FE10B90023DE
:103580006B71C9E79DF807000128F8D103F05AF9DB
:10359000013CEED1F3E700BFFC0900206477000096
:1035A000966F000019770000917000000C00004039
:1035B00004000040164B07B51A686AB100221A6071
:1035C0001B684FF080430122C3F80823114B587940
:1035D00010B95A711B6898470F4B1A686AB10020DE
:1035E000186001A91B68FFF7ABFE019A4FF08043FA
:1035F00032B90122C3F818259A6003B05DF804FBC4
:103600000222C3F80823034B01201B689847F4E704
:1036100000010040FC09002004010040012303FADE
:1036200000F010F0FF0F12D04FF02003EFF31181E4
:1036300083F31288BFF36F8F064AD36D23EA00002D
:10364000D06581F31188BFF36F8F0348704703483B
:10365000704700BF040A00200000AD0B0400AD0B52
:103660002DE9F0410546DFF860E01648DFF85C80A0
:103670000024FF220126E3B24FF02001EFF3118C6A
:1036800081F31288BFF36F8F22FA03F1C9070AD5BD
:10369000DEF85C1006FA03F7394201BF3943CEF871
:1036A0005C1040462B708CF31188BFF36F8F404540
:1036B00005D006FA03F39A4304F10104DBD1BDE817
:1036C000F08100BF0200AD0B040A00200000AD0B2A
:1036D0002DE9F041144A154E154F054615480024B2
:1036E0004FF0010E5FFA84FC4FF02003EFF31188D6
:1036F00083F31288BFF36F8F0EFA0CF3134207D0D7
:1037000031680B4201BF1943316085F800C038466B
:1037100088F31188BFF36F8FB84203D09A4304F146
:103720000104DFD1BDE8F081FFFF0F00640A002033
:103730000000AD0B0200AD0B034B1868A0F10803AD
:1037400058425841704700BF30010010064B1B68BB
:10375000082B06D1054B1B68052B02D8044AD05C08
:1037600070470020704700BF300100103401001086
:1037700088770000024AD2F80034002BFBD0704753
:1037800000E0014010B5FFF7D7FF40B14FF0804394
:103790000022C3F80C21C3F81021C3F83825FFF725
:1037A000CBFF002846D04FF080525B4BD2F8041478
:1037B000C3F82015D2F80814C3F82415D2F80C1455
:1037C000C3F82815D2F81014C3F82C15D2F8141425
:1037D000C3F83015D2F81814C3F83415D2F81C14F5
:1037E000C3F84015D2F82014C3F84415D2F82414B5
:1037F000C3F84815D2F82814C3F84C15D2F82C1485
:10380000C3F85015D2F83014C3F85415D2F8341454
:10381000C3F86015D2F83814C3F86415D2F83C1414
:10382000C3F86815D2F84014C3F86C15D2F84424D4
:10383000C3F87025FFF78AFF10B1384B384A1A6079
:10384000FFF784FF18B1374BFB22C3F81825FFF7A9
:103850007DFF48B13449354B0A681B6822F00F02DE
:1038600003F00F0313430B60FFF770FF18B1304BE9
:103870004FF400721A60FFF75FFF48B14FF08043CA
:10388000D3F80024D20744BF6FF00102C3F800242C
:10389000284B1B68082B0ED1274B1B68052B02D821
:1038A000264AD35C3BB14FF01023D3F808224FF0E7
:1038B0008043C3F858254FF01023D3F80022002A84
:1038C00003DBD3F80432002B22DA1D490123C1F8AF
:1038D0000435FFF74FFF4FF010201224C0F80042CC
:1038E000FFF748FFC0F80442FFF744FF0023C1F888
:1038F0000435FFF73FFFBFF34F8F1249124BCA68E1
:1039000002F4E0621343CB60BFF34F8F00BFFDE7CB
:103910000E4B0F4A1A6010BD00C000408C5600408C
:103920004881030000F00040E40E004058020010FF
:1039300040960240300100103401001082770000F0
:1039400000E0014000ED00E00400FA055C0000200A
:103950000090D00310B5144C144A15490323236179
:103960006361144BA261E3614FF48063236200231F
:10397000A3626362E36222660F4A6266E01D102260
:10398000A2662367E366636702F072FDBFF35F8F91
:103990000A49204602F06CFDBFF35F8F2023A3711C
:1039A000BFF35F8F10BD00BF680A00208E77000054
:1039B00097770000820B0020720B00209B7700009D
:1039C0000E4B70B553F82040013053F82060A642EA
:1039D00000D870BDD4E900352846984765B1EB683A
:1039E00030B10028B8BF4042FF28A8BFFF201870A0
:1039F0005A7842F001025A700834E8E7F86C000087
:103A0000F8B504460E464FF02003EFF3118783F319
:103A10001288BFF36F8F01F001FC31460546204646
:103A200002F000FF042C0CD10A490B4A0B488F23EB
:103A300002F0F1FC0A4802F0EEFC07488F2102F088
:103A400011FC87F31188BFF36F8F2846BDE8F8405B
:103A5000FEF788B9C4770000A2770000966F0000D7
:103A6000E1770000114CA26892F90E20002A08B5F7
:103A700009DA0F490F48104A462302F0CCFC0E48E1
:103A8000462102F0EFFB4FF02002EFF3118382F3A7
:103A90001288BFF36F8F02F01DF8A061FDF7AAFD39
:103AA0000028F0D1FDF73CFEEDE700BF100B002031
:103AB00037780000966F00001678000030B50023BC
:103AC00087B00122CDE904230F22CDE902320D4C4B
:103AD0000D4A01930D49182304EBC01403FB002386
:103AE0004FF4B075009305FB0011094B4FF4A07221
:103AF000204601F015FD637B23F00403637307B0D8
:103B000030BD00BFD0020020100B0020C0210020DB
:103B1000653A000008B50A4B012202201A70FFF72F
:103B20004FFF02F0A5F90320FFF74AFF01F0AAFDBD
:103B3000FCF70CFD034A137B23F00103137308BD4C
:103B4000820F0020500300200248034A0021121A6D
:103B500002F0B3BC300100204011002080B5DFF836
:103B6000D880A6B088F308882D4D2E4E6B69DFF8FB
:103B7000CC9043F4007300246B61E02385F822307D
:103B8000EC772C766C76AC7685F820406B6A43F443
:103B9000E0236B6285F82340FEF78EF8FDF7BAFD4F
:103BA0004FF0FF33AB62EB62FEF7B6F9FEF7ECF8CD
:103BB00040F20113ADF8243006ABB360CDE91F44E9
:103BC00002F049FE2046FFF7FBFE0120164DFFF7ED
:103BD000F7FE01F08DF9154B05930123144900946C
:103BE000CDE903434FF480624B46CDE901442846BA
:103BF000F56101F095FC6A7B22F004026A730746C6
:103C0000284600F0C1FD2046FFF758FF094BF3603E
:103C10004A46394628463475C6F80480FDF7B4FE96
:103C200000ED00E0100B0020500300205F78000042
:103C3000A01D0020D0020020402B0020153B0000DA
:103C40002DE9F041164D174C174EA846AC420CD941
:103C5000164917483C23324602F0DDFB154802F0B6
:103C6000DAFB3C21304602F0FDFA444502D3002045
:103C7000BDE8F081D4E9042141EA020313F0030313
:103C80000BD1E068A361834201D12034DEE7A7694C
:103C90000F600133A1611144F5E76FF01500E7E70C
:103CA000E0000020E0000020647800008978000037
:103CB000966F0000A67800002DE9F74304460E46F3
:103CC0009046994600F108054FF02003EFF3118765
:103CD00083F31288BFF36F8F284601F063FD68B944
:103CE000244A25492548812302F095FB244829468A
:103CF00002F091FB1F48812102F0B4FA284601F03E
:103D00006FFDA369EBB133601B68A361E369013305
:103D1000E3610024284601F053FD68B9154A1949AA
:103D20001648AC2302F077FB1748294602F073FBD4
:103D30001048AC2102F096FA87F31188BFF36F8F19
:103D400013E058EA090203D133606FF00B04E1E796
:103D50002246CDE900893946284600F0C7FE0446D0
:103D600018B90A4B9B685B693360204603B0BDE815
:103D7000F08300BFA9700000FB700000966F000088
:103D800010710000CF700000E6700000100B0020E2
:103D90002DE9F04104460E4600F108054FF02003DE
:103DA000EFF3118783F31288BFF36F8F284601F07A
:103DB000F9FC68B9224A23492348812302F02BFBEE
:103DC0002248294602F027FB1D48812102F04AFAC9
:103DD000284601F005FDD4F81880B8F1000F0FD186
:103DE000204601F035F858B132684261C0F8788059
:103DF00000F0CAFC39462846BDE8F04100F070BA30
:103E00003368A2691A603368A361E369013BE36127
:103E1000284601F0D5FC68B9094A0D490A48AC2387
:103E200002F0F9FA0B48294602F0F5FA0448AC21F1
:103E300002F018FA87F31188BFF36F8FBDE8F081A5
:103E4000A9700000FB700000966F00001071000068
:103E5000CF700000E67000002DE9F34104461646DD
:103E60001F46EFF3058363B17049714A71486523BA
:103E700002F0D1FA704802F0CEFA6D48652102F0E6
:103E8000F1F94FF02003EFF3118883F31288BFF3A9
:103E90006F8F6A4801F086FC68B9694A69496548CC
:103EA000812302F0B8FA6549674802F0B4FA644821
:103EB000812102F0D7F9614801F092FCE368634A7E
:103EC000FBB1A068916888423DD056EA07033CD117
:103ED0005A4801F075FC68B9594A5D495548AC2308
:103EE00002F099FA55495B4802F095FA5448AC2122
:103EF00002F0B8F988F31188BFF36F8F6FF00F00ED
:103F00001EE0916891F90E104C4821610133E36085
:103F10009368A36001F054FC68B9494A4C4945488C
:103F2000AC2302F078FA45494A4802F074FA444852
:103F3000AC2102F097F988F31188BFF36F8F00204E
:103F400002B0BDE8F0812169DEE791F90E1090F929
:103F50000E309942A8BF19466FF07E029142B8BF59
:103F600011468B4244DD00F0F1FD0546CDE90067C6
:103F700032482246414600F0B9FD0028E0D04FF01B
:103F80002003EFF3118683F31288BFF36F8F2B4862
:103F900001F008FC68B92A4A2A492648812302F020
:103FA0003AFA2649284802F036FA2548812102F0DB
:103FB00059F9224801F014FC236821699C420AD077
:103FC0004BB193F90E309942A8BF19466FF07E03AA
:103FD0009942B8BF1946A06890F90E30994209D1AC
:103FE0006DB11648314600F07BF96FF00A00A7E783
:103FF0000025BBE700F0AAFD0028F2D1F0E70F484A
:1040000001F0DEFB68B90E4A11490A48AC2302F000
:1040100002FA0A490F4802F0FEF90948AC2102F001
:1040200021F986F31188BFF36F8FDEE7E778000090
:10403000C5780000966F0000F9780000380B00206A
:10404000A9700000FB70000010710000100B002030
:10405000CF700000E670000038B50446EFF305832A
:1040600063B15249524A5348C72302F0D4F9524827
:1040700002F0D1F94E48C72102F0F4F8A368002BF2
:1040800000F08D804D4DAA68934240F08B80E3682C
:104090004BB94B494748464ADF2302F0BCF9444834
:1040A000DF2102F0DFF8EFF3058363B13F49454AB2
:1040B0004048FD2302F0AFF9434802F0ACF9414813
:1040C000FD2102F0CFF8AB68DB7B012B0CD13F491F
:1040D0003C4A3848FE2302F09EF93B4802F09BF927
:1040E0003848FE2102F0BEF8AA68D37B013BD373A7
:1040F000E368012B05D9013BE36000F02DFE0020B1
:1041000038BD4FF02003EFF3118583F31288BFF31E
:104110006F8F2F4801F046FB68B92E4A2E4925487B
:10412000812302F078F92A492C4802F074F92948D1
:10413000812102F097F8264801F052FBA06821691E
:1041400090F90E30994201D000F000FD204600F0B9
:104150007FFEA06058B190F90E2022610022826794
:1041600000F012FB1A48294600F0BAF8C5E7E060F3
:10417000174801F025FB68B9164A19490D48AC23C8
:1041800002F049F91249174802F045F91148AC21EB
:1041900002F068F885F31188BFF36F8FADE76FF019
:1041A0001500ADE74FF0FF30AAE700BFE778000049
:1041B000C5780000966F0000F9780000100B002011
:1041C0001E790000357900006079000063790000F5
:1041D000380B0020A9700000FB7000001071000077
:1041E000CF700000E670000010B5084C23685BB18A
:1041F000FFF788F803462068054A0344BDE81040ED
:104200001361002101F0AEBC10BD00BF480B0020BF
:10421000100B0020F8B504460D464FF02003EFF3D5
:10422000118683F31288BFF36F8F234801F0BAFA27
:1042300068B9224A22492348812302F0ECF81E493A
:10424000214802F0E8F81D48812102F00BF81A48D5
:1042500001F0C6FA1D4B00224FF4004740F2E73050
:1042600000211A61E7FB040100234FF47A72FBF787
:1042700047FF002C164B1BDC1860164B1D60FFF728
:10428000B3FF0D4801F09CFA68B90C4A12490D4879
:10429000AC2302F0C0F80849104802F0BCF8074807
:1042A000AC2101F0DFFF86F31188BFF36F8FF8BDFB
:1042B0000228B8BF0220DFE7400B0020A9700000F1
:1042C000FB700000966F000010710000100B0020C2
:1042D000480B0020440B0020CF700000E670000067
:1042E00038B504460D46E9B9EFF30583D3B9194B48
:1042F000DA699B689A4215D001F062FA68B9164AE9
:1043000016491748C32302F086F81648214602F0E2
:1043100082F81148C32101F0A5FFBDE83840002014
:10432000FDF7E2BA204601F04BFA68B90A4A0B4998
:104330000B48AC2302F06FF80A48214602F06BF8F4
:104340000548AC2101F08EFF85F31188BFF36F8F14
:1043500038BD00BF100B0020A9700000CF70000016
:10436000966F0000E670000038B54FF02003EFF3C1
:10437000118583F31288BFF36F8F294801F012FA79
:1043800068B9284A28492948812302F044F8244979
:10439000274802F040F82348812101F063FF2048BC
:1043A00001F01EFAEFF3058363B12249224A1F4848
:1043B000FD2302F030F8214802F02DF81E48FD21BF
:1043C00001F050FF1E4CA268D27B012A0CD11D497E
:1043D000194A1648FE2302F01EF8184802F01BF88E
:1043E0001548FE2101F03EFFA268D37B013BD37349
:1043F0000B4801F0E5F968B90A4A13490B48AC23A8
:1044000002F009F80649114802F005F80548AC2108
:1044100001F028FF85F31188BFF36F8F38BD00BF0F
:10442000400B0020A9700000FB700000966F000098
:1044300010710000E7780000357900006079000015
:10444000100B002063790000CF700000E6700000C0
:104450000C4B994210B50C460BD10B490B480C4A3A
:1044600040F2B53301F0D7FF094840F2B53101F011
:10447000F9FED4E9003213605A600023C4E9003326
:1044800010BD00BFD0020020B6790000966F00007A
:1044900094790000836810B504465BB90B490C4859
:1044A0000C4A40F2532301F0B6FF0A4840F2532170
:1044B00001F0D8FEA0682146FFF7CAFF637B23F016
:1044C000020363730023A36010BD00BFD77900000F
:1044D000966F00009479000038B502461448154DD7
:1044E00002F004FA044600B9EC68CAB9AB6863B9D3
:1044F0001149124A1248812301F08DFF114801F041
:104500008AFF0E48812101F0ADFEAB685A7BD206CE
:1045100006D1A26922B9DA897F2A01D9EB6138BDB7
:10452000AB68A34201D0FFF75FFEEC61F7E700BF85
:10453000300B0020100B0020EE7900009479000071
:10454000966F00006079000070B590F90D20437BF4
:10455000002A044606DA03F07F03437301461F482E
:10456000FFF776FF637B63F07F0363731C4B9C4212
:1045700009D11C491C481D4AB12301F04CFF1B48BE
:10458000B12101F06FFE1A4A1146556A51F8203FD9
:104590008B4208BF0023002B38BF0023CBB194F916
:1045A0000E6093F90E0086420FD0801B00280CDDB0
:1045B0005968C4E900310C605C609068031B584284
:1045C000BDE870405841FFF787BFAB4201D01B6880
:1045D000E4E7C4E900152C605462EEE7300B0020DC
:1045E000D0020020B6790000966F00009479000098
:1045F000100B002070B504464FF02003EFF3118537
:1046000083F31288BFF36F8F2A4801F0CBF868B9A3
:10461000294A2A492A48812301F0FDFE25492948D3
:1046200001F0F9FE2448812101F01CFE214801F02F
:10463000D7F8254B254A986811688842194618D141
:10464000FFF7D2FD1B4801F0BBF868B91A4A2049B0
:104650001B48AC2301F0DFFE16491E4801F0DBFECB
:104660001548AC2101F0FEFD85F31188BFF36F8F73
:1046700070BD00261660184A1268BAB1C2897F2A36
:1046800014D8427BD20611D1144A90F90E601268F8
:1046900096420BDB124A904208D01A69A24202DC11
:1046A000FFF752FFCCE7121B1A61CBE700230B6127
:1046B000C8E700BF400B0020A9700000FB7000009D
:1046C000966F000010710000100B00203C0B0020C2
:1046D000CF700000E6700000480B0020440B002063
:1046E000D002002070B590F90D20437B002A0446CB
:1046F0003EDBDA063CD18569002D39D163F07F03BA
:1047000043731C4B984209D11B491C481C4AB123D6
:1047100001F081FE1A48B12101F0A4FD19490B46B0
:1047200053F8200F984218BF0546002D1A462B4615
:104730004D6A38BF0023B3B194F90E6093F90E00AF
:1047400086420CD0801B002809DD5A68C4E900327B
:1047500014605C60BDE870400020FFF7BDBEAB4256
:1047600001D01B68E7E7C4E900252C604C62F1E743
:1047700070BD00BFD0020020B6790000966F000027
:1047800094790000100B002038B504464FF0200348
:10479000EFF3118583F31288BFF36F8F174801F091
:1047A00001F868B9164A17491748812301F033FE0A
:1047B0001249164801F02FFE1148812101F052FDE7
:1047C0000E4801F00DF82046FFF78CFF0B4800F073
:1047D000F7FF68B90A4A0E490B48AC2301F01BFEEB
:1047E00006490C4801F017FE0548AC2101F03AFDDE
:1047F00085F31188BFF36F8F38BD00BF400B0020D9
:10480000A9700000FB700000966F0000107100009E
:10481000CF700000E670000038B504464FF020036A
:10482000EFF3118583F31288BFF36F8F1D4800F0FB
:10483000B9FF68B91C4A1D491D48812301F0EBFDF1
:1048400018491C4801F0E7FD1748812101F00AFDD5
:10485000144800F0C5FF637B5A0716D4114800F0D6
:10486000AFFF68B9104A14491148AC2301F0D3FDD9
:104870000C49124801F0CFFD0B48AC2101F0F2FCCD
:1048800085F31188BFF36F8F38BD23F004032046F2
:104890006373FFF727FF29460248BDE83840FFF75A
:1048A0001FBD00BF400B0020A9700000FB7000007E
:1048B000966F000010710000CF700000E6700000DD
:1048C00070B504464FF02003EFF3118683F312888E
:1048D000BFF36F8F204800F065FF68B91F4A204979
:1048E0002048812301F097FD1B491F4801F093FDEB
:1048F0001A48812101F0B6FC174800F071FF14F846
:104900000B3C13F0280F10D154F8103CA4F11805FB
:1049100013B12846FFF7BEFD14F80B3C23F0140337
:1049200004F80B3C2846FFF7DDFE0B4800F048FF7B
:1049300068B90A4A0D490B48AC2301F06CFD0649E1
:104940000B4801F068FD0548AC2101F08BFC86F3B3
:104950001188BFF36F8F70BD400B0020A97000005D
:10496000FB700000966F000010710000CF70000017
:10497000E670000010B590F90D20437B002A044634
:1049800006DA03F07F03437301460648FFF760FD34
:10499000054B9868031B5842BDE810405841FFF78B
:1049A0009BBD00BF300B0020100B002038B5044623
:1049B0000D46FFF7DFFF637B43F0020363731DB314
:1049C000174BA5609C4209D116491748174AB123D5
:1049D00001F021FD1548B12101F044FC2B689D42F6
:1049E00008BF0023002B38BF00239BB194F90E10A1
:1049F00093F90E20914208D0521A002A05DD5A6818
:104A0000C4E9003214605C6038BD6A68934201D02A
:104A10001B68EAE76B68C4E900531C606C60F3E74D
:104A2000D0020020B6790000966F00009479000053
:104A30002DE9F04104460D4616461F464FF020036F
:104A4000EFF3118883F31288BFF36F8F1F4800F0D4
:104A5000A9FE68B91E4A1F491F48812301F0DBFCEB
:104A60001A491E4801F0D7FC1948812101F0FAFBD0
:104A7000164800F0B5FE20462946FFF797FF134879
:104A800000F09EFE68B9124A15491348AC2301F0A4
:104A9000C2FC0E49134801F0BEFC0D48AC2101F0E8
:104AA000E1FB88F31188BFF36F8F7B1C08BFB6F161
:104AB000FF3F08D032463B4604F118000A49BDE8E2
:104AC000F04100F0E5BEBDE8F08100BF400B0020E2
:104AD000A9700000FB700000966F000010710000CC
:104AE000CF700000E6700000C148000038B5114BDF
:104AF00004469868104B0D4618601146DDE9042302
:104B0000FFF796FF204600F05BFE68B90B4A0C49A0
:104B10000C48C32301F07FFC0B48214601F07BFCCD
:104B20000648C32101F09EFB2846BDE83840FCF74B
:104B3000DBBE00BF100B00203C0B0020A970000062
:104B4000CF700000966F0000E6700000F8B50446D4
:104B50000E464FF02003EFF3118783F31288BFF363
:104B60006F8F3C4800F01EFE68B93B4A3B493C4809
:104B7000812301F050FC37493A4801F04CFC36489B
:104B8000812101F06FFB334800F02AFE637BDA06D7
:104B900076B25CD1A569002D59D103F07F03637310
:104BA00031482146FFF754FC637BA67363F07F0313
:104BB00063732E4B9C4209D12D4929482D4AB123BC
:104BC00001F029FC2B48B12101F04CFB2A490B468E
:104BD00053F8200F984218BF0546002D1A462B4661
:104BE0004D6A38BF00236BB394F90E6093F90E0041
:104BF000864223D0801B002820DD5A68C4E9003299
:104C000014605C600120FFF767FC0124114800F08C
:104C1000D7FD68B9104A19491148AC2301F0FBFBD4
:104C20000C49174801F0F7FB0B48AC2101F01AFBC7
:104C300087F31188BFF36F8F2046F8BDAB4201D0D8
:104C40001B68D0E7C4E900252C604C62DAE7A67344
:104C50000024DBE7400B0020A9700000FB7000007F
:104C6000966F000010710000300B0020D002002071
:104C7000B679000094790000100B0020CF7000007E
:104C8000E670000070B50446183000F0D5FE4FF015
:104C90002003EFF3118683F31288BFF36F8F25484B
:104CA00000F080FD68B9244A24492548812301F099
:104CB000B2FB2049234801F0AEFB1F48812101F0DF
:104CC000D1FA1C4800F08CFD94F90D20637B002A7A
:104CD00006DA03F07F031C4863732146FFF7B8FB35
:104CE0001A4D637BA86843F010036373031B58429B
:104CF0005841FFF7F1FB0F4800F062FD68B90E4A1A
:104D000013490F48AC2301F086FB0A49114801F012
:104D100082FB0948AC2101F0A5FA86F31188BFF3A4
:104D20006F8FAB68A34203D1BDE8704001F0D4BDE2
:104D300070BD00BF400B0020A9700000FB70000098
:104D4000966F000010710000300B0020100B002047
:104D5000CF700000E670000038B54FF02003EFF38D
:104D6000118583F31288BFF36F8F2D4800F01AFD71
:104D700068B92C4A2C492D48812301F04CFB284965
:104D80002B4801F048FB2748812101F06BFA294CA0
:104D9000234800F025FDA268D27B72B92649274A34
:104DA000224840F2553301F036FB254801F033FB31
:104DB000224840F2553101F055FAEFF3058373B103
:104DC00020491E4A194840F2563301F024FB1C4882
:104DD00001F021FB194840F2563101F043FAA26874
:104DE000D37B01330020D373FFF776FB0C4800F030
:104DF000E7FC68B90B4A14490C48AC2301F00BFBE3
:104E00000749124801F007FB0648AC2101F02AFAD5
:104E100085F31188BFF36F8FBDE8384001F05CBDAA
:104E2000400B0020A9700000FB700000966F00008E
:104E300010710000100B0020157A0000947900001A
:104E400060790000E7780000CF700000E670000095
:104E500038B504464FF02003EFF3118583F3128831
:104E6000BFF36F8F1B4800F09DFC68B91A4A1B49BD
:104E70001B48812301F0CFFA16491A4801F0CBFAFA
:104E80001548812101F0EEF9124800F0A9FC2046F6
:104E900001F02CFD044628B1FFF7FCFA04F11800DC
:104EA00000F0CAFD0B4800F08BFC68B90A4A0E49B5
:104EB0000B48AC2301F0AFFA06490C4801F0ABFAFD
:104EC0000548AC2101F0CEF985F31188BFF36F8F4F
:104ED000204638BD400B0020A9700000FB70000088
:104EE000966F000010710000CF700000E6700000A7
:104EF000044B002103F12002C3E908220846FFF712
:104F000089B900BF100B0020F8B5EFF3058373B12A
:104F10004149424A424840F2A14301F07CFA4148EB
:104F200001F079FA3D4840F2A14101F09BF94FF0C0
:104F30002003EFF3118683F31288BFF36F8F3A4893
:104F400000F030FC68B9394A39493548812301F00D
:104F500062FA3549374801F05EFA3448812101F0A0
:104F600081F9354D304800F03BFCA9684B7B03F0DC
:104F70007F034B7305F12000FFF76AFAAC68637B8F
:104F800063F07F0363732D4B9C4209D12C49244865
:104F9000224AB12301F03FFA2048B12101F062F921
:104FA0002B6A2848696A834208BF0023002B38BF58
:104FB00000235BB394F90E7093F90E20974221D031
:104FC000D21B002A1EDD5A68C4E9003214605C60FE
:104FD0000120FFF781FA144800F0F2FB68B9134A88
:104FE00019490F48C32301F016FA0F49174801F079
:104FF00012FA0E48C32101F035F93046BDE8F840F9
:10500000FCF772BC8B4201D01B68D2E7C4E90001F7
:105010000C606C62DCE700BFE77800009479000068
:10502000966F000060790000400B0020A97000001E
:10503000FB70000010710000100B0020D002002057
:10504000B6790000300B0020CF700000E670000041
:105050002DE9F04104460D46EFF3058373B1454950
:10506000454A464840F2BE4301F0D5F9444801F0B4
:10507000D2F9414840F2BE4101F0F4F854EA050388
:1050800004D1FFF741FF0020BDE8F0816FF001037C
:105090001E1B4FF0FF3363EB0507012E77F1000372
:1050A00064DA01F03FFC06194FF02003EFF311889A
:1050B00083F31288BFF36F8F324800F073FB68B937
:1050C000314A32492D48812301F0A5F92D49304854
:1050D00001F0A1F92C48812101F0C4F82D4F294895
:1050E00000F07EFB2C4BB8681860FFF743FCB868F3
:1050F0002A4922462B46183000F0CAFBBA682148DC
:10510000537B43F01003537300F05AFB68B91E4AF7
:1051100023491A48C32301F07EF91A49214801F0B6
:105120007AF91948C32101F09DF84046FCF7DCFBF1
:10513000BB685B7BDB060ED51B490F4A0F4840F26C
:10514000DF4301F068F90E4801F065F90A4840F2C2
:10515000DF4101F087F801F0E5FB301A66EB06014C
:10516000012871F10003B8BF00208DE76FF0010640
:10517000361B99E7E778000094790000966F0000ED
:1051800060790000400B0020A9700000FB70000057
:1051900010710000100B00203C0B0020C1480000E3
:1051A000CF700000E6700000467A000038B5044673
:1051B0000D46EFF3058373B11349144A144840F2C6
:1051C000EE4301F028F9134801F025F90F4840F2A9
:1051D000EE4101F047F86B1C08BFB4F1FF3F06D168
:1051E0000D4B9868FFF74EFD4FF0FF3038BD20465D
:1051F0002946FFF72DFF4FF47A7380FB0334D80B59
:1052000040EA4440F2E700BFE778000094790000EC
:10521000966F000060790000100B0020014B986829
:10522000704700BF100B00202DE9F04104464FF0FD
:105230002003EFF3118683F31288BFF36F8F484882
:1052400000F0B0FA68B9474A47494848812301F05D
:10525000E2F84349464801F0DEF84248812101F076
:1052600001F83F4800F0BCFA637B1A0717D53C48A9
:1052700000F0A6FA68B93B4A3E493C48AC2301F02D
:10528000CAF837493C4801F0C6F83648AC2100F06E
:10529000E9FF86F31188BFF36F8FBDE8F08123F03B
:1052A000200242F00801D20942D16173A36813B110
:1052B0002046FFF7EFF804F1180000F0BDFB04F101
:1052C00058074FF00008A56DBD4201D0002D39D11F
:1052D0000120FFF701F9294B9B68A342C7D1EFF3E7
:1052E0000583002BC3D11E4800F06AFA68B91D4A35
:1052F00020491E48C32301F08EF819491E4801F0C9
:105300008AF81848C32100F0ADFF3046FCF7ECFAEC
:105310001B4A1C49154840F2096301F07CF81A4801
:1053200001F079F8164840F2096100F09BFF9EE712
:1053300003F05F0343F00803144863732146FFF74B
:1053400087F8B3E72846FFF7A5F805F1180000F045
:1053500073FBC5F878802846FFF7C4F9B3E700BFB0
:10536000400B0020A9700000FB700000966F000049
:1053700010710000CF700000E6700000100B0020DC
:105380009479000091700000867A0000300B0020B4
:1053900038B504464FF02003EFF3118583F31288EC
:1053A000BFF36F8F144800F0FDF968B9134A144930
:1053B0001448812301F02FF80F49134801F02BF80E
:1053C0000E48812100F04EFF0B4800F009FA2046FC
:1053D000FFF73EFD48B100228267FFF7D5F9294665
:1053E0000548BDE83840FEF77BBFD4E902329A4257
:1053F00018BF0133A360F2E74C0B0020A970000036
:10540000FB700000966F000010710000F7B50446B5
:1054100016461F46EFF305837BB156EA07030CD00F
:105420003549364A3648792300F0F5FF354800F013
:10543000F2FF3248792100F015FF4FF02003EFF31F
:10544000118583F31288BFF36F8F2F4800F0AAF9FC
:1054500068B92E4A2E492A48812300F0DCFF2A49E8
:105460002C4800F0D8FF2948812100F0FBFE264897
:1054700000F0B6F9A368D3B1013B2348A36000F064
:105480009FF968B9214A24491D48AC2300F0C3FFA5
:105490001D49224800F0BFFF1C48AC2100F0E2FE8D
:1054A00085F31188BFF36F8F002003B0F0BD56EA7B
:1054B000070318D1144800F083F968B9134A164954
:1054C0000F48AC2300F0A7FF0F49144800F0A3FFDA
:1054D0000E48AC2100F0C6FE85F31188BFF36F8F34
:1054E0006FF00F00E1E7CDE9006722462946064844
:1054F000FFF7FCFAD9E700BFC87A0000A87A0000DD
:10550000966F0000607900004C0B0020A97000002D
:10551000FB70000010710000CF700000E67000000A
:105520002DE9F04385B00446DDF83C80B8F10F0F5B
:105530000F461546994632D1254B994533D104F192
:105540005803C4E91633109B237307350423637390
:1055500025F0070507F12003C4E919350E9B84F8EF
:105560000E80029305F120080D9B019300260C9BF1
:105570000093B8444B46C4E90666A660E673E66647
:10558000424639462046FCF7C9F9124B66659B68CE
:1055900003B11B6F2367404605B0BDE8F08308F1F7
:1055A00010031E2BCBD90C4A0C490D4840F20523A1
:1055B00000F031FF41460B486FF00F030E2200F060
:1055C0002AFF054840F2052100F04CFEB7E700BF76
:1055D000653A0000100B0020157B0000387B0000AE
:1055E000966F0000B87B00002DE9F04387B0DDE93D
:1055F000146704460D4690469946EFF3058373B150
:105600001B491C4A1C4840F26E2300F004FF1B4853
:1056100000F001FF174840F26E2100F023FE002346
:105620000593129B0493119B0393109B02930F9B72
:1056300001930E9B009342464B4629462046FFF7B6
:105640006FFF7B1C08BFB6F1FF3F05D056EA07038A
:1056500006D12046FFF7E0F8204607B0BDE8F0830A
:10566000074932463B4604F1180000F011F9F3E710
:10567000E7780000157B0000966F0000E97B0000D2
:10568000C14800002DE9F04B3F4F404DDFF80C8141
:1056900086B03E46BD420ED93D493E4840F2D52334
:1056A000424600F0B8FE3C4800F0B5FE40F2D5217D
:1056B000404600F0D7FDB54205F130041FD3FEF798
:1056C00053FE324C354DDFF8C880DFF8C890B44245
:1056D0000ED941464FF43D732A46484600F09BFEE2
:1056E0002D4800F098FE4FF43D71284600F0BAFDB9
:1056F000B44221D306B0BDE8F04BFFF72DBB54F800
:10570000043C059354F8103C049354F8143C039360
:1057100054F8183C029354F81C3C019354F8203C74
:10572000009354E90A2354E90C01FFF7F9FE54F8F9
:10573000303C5D652546ADE7616A4B1C14D040F2F4
:10574000E732002321EAE1714FF4004093469C4682
:10575000C0FB01BC9C4508BF93452768584661467D
:1057600004D13846FFF758F83034B0E74FF47A7276
:105770000023FAF7C5FC02460B4607F1180008495A
:1057800000F086F8F0E700BFE0000020E000002015
:105790000E7C0000966F0000A6780000157B0000CC
:1057A000C1480000006838B1044B1B7D00F00300C5
:1057B000C01A18BF0120704701207047100B00204D
:1057C000064903468A68087D1968024391424FF0F2
:1057D000000004BF18600120704700BF100B0020BC
:1057E000024A117D93680B4303607047100B002041
:1057F000034B1B680BB9FDF785BD0020704700BF48
:10580000500B002038B5134B1C689C4208BF002485
:10581000FFF7EEFF0546BCB1D4E90401401B61EB84
:10582000E571012871F1000311DB6FF000420023E4
:10583000824273EB010400DA1046074B1B6913B177
:105840009842A8BF184638BD6FF00040F5E7002029
:10585000F3E700BF60000020100B002030B50368A4
:1058600068B10A4A5268904209D043B1D3E9042191
:10587000D0E90445121945EB0101C3E9042142684E
:1058800013605A600023C0E9003330BD600000207F
:105890002DE9F74F1D466B1C08BFB2F1FF3F824652
:1058A0008B46144600F0AA80036863B15549564AF6
:1058B00056485D2300F0AFFD554800F0ACFD52485E
:1058C0005D2100F0CFFCCAF808B04FF02003EFF3E1
:1058D000118B83F31288BFF36F8F4E48FFF762FF7F
:1058E00068B94D4A4D494948812300F094FD494922
:1058F0004B4800F090FD4848812100F0B3FC45483A
:10590000FFF76EFF6FF00103B3EB04084FF0FF32B7
:1059100062EB0509B8F1000F79F100011CDB414889
:10592000D0E900105B1A62EB00021E1B62EB050758
:10593000012E77F10003BCBF01260027CAE90467E6
:10594000394AD2E9003693421DD1CAE90026C6F889
:1059500000A0C2F804A02CE0FFF74AFF631C0093EC
:1059600045F100030193DDE90023121843EBE073D6
:10597000CAE90423E4E7E01B65EB0801B342CAE986
:105980000401E2D01B68002BDFD0D3E90478DAE908
:105990000445BC4275EB0801EDDA381B68EB0501E4
:1059A000C3E904015968CAE90031C1F800A0C3F88D
:1059B00004A0136893420BD09A4509D1FFF722FF48
:1059C00018B11A4B1B69834202D00021FDF76AFC13
:1059D0001048FFF7F5FE68B90F4A15490B48AC238C
:1059E00000F019FD0B49134800F015FD0A48AC21E1
:1059F00000F038FC8BF31188BFF36F8F03B0BDE864
:105A0000F08F00BF5F7C00003B7C0000966F0000C1
:105A100060790000540B0020A9700000FB700000AA
:105A200010710000D003002060000020100B002047
:105A3000CF700000E670000038B504464FF0200338
:105A4000EFF3118583F31288BFF36F8F1A48FFF7C6
:105A5000A9FE68B9194A1A491A48812300F0DBFCEB
:105A60001549194800F0D7FC1448812100F0FAFBD1
:105A70001148FFF7B5FE2368DBB12046FFF7EEFEC5
:105A800000240D48FFF79CFE68B90C4A0F490D48E9
:105A9000AC2300F0C0FC08490D4800F0BCFC0748EE
:105AA000AC2100F0DFFB85F31188BFF36F8F204638
:105AB00038BD6FF01504E4E7540B0020A970000016
:105AC000FB700000966F000010710000CF700000A6
:105AD000E670000038B54FF02003EFF3118583F333
